:0C00000028C0FECFFDCFFCCF4BC3FACFD1
:10000C00F9CFF8CFF7CF2FC3F5CFF4CFF3CF07C38A
:10001C00F1CFF0CFEFCFEECFEDCF1027E803640098
:10002C000A00010000100001100001000000320065
:10003C000000FA00000002000A0004003800010071
:10004C00680142000000F894EE27ECBBF1E0FBBF26
:10005C00EBBFE5BF8DE0A2E0BB27ED938A95E9F7F6
:10006C0080E094E0A0E6ED930197E9F7E4E4F0E09A
:10007C0085919591009761F0A591B591059015909A
:10008C00BF01F00105900D920197E1F7FB01F0CF54
:10009C00EFE5EDBFE4E0EEBFC0E6D1E037C38B9AED
:1000AC008C9A8D9A8E9A8F9AB89ABE9ABF9AB99A50
:1000BC008A9AA59A93989498959896989798C09898
:1000CC00C698C798C1989298AD98089582D4F0E0DC
:1000DC00E033A0E0FA0711F4EFE69FC2E133A0E0B1
:1000EC00FA0711F4EAE099C2E233A0E0FA0711F43E
:1000FC00E3EE93C2E333A0E0FA0711F4EAEE8DC20B
:10010C00E433A0E0FA0711F4EEE887C2E533A0E08F
:10011C00FA0711F4ECEE81C2E633A0E0FA0711F411
:10012C00EDEE7BC2E733A0E0FA0711F4EAE475C206
:10013C00E833A0E0FA0711F4EFEE6FC2E933A0E068
:10014C00FA0711F4EEEE69C2E136A0E0FA0711F4F9
:10015C00EFE463C2E134A0E0FA0711F4EFE45DC20E
:10016C00E635A0E0FA0711F4EFE257C2E637A0E05B
:10017C00FA0711F4EFE251C2E334A0E0FA0711F4EC
:10018C00E5E64BC2E336A0E0FA0711F4E5E645C21A
:10019C00E434A0E0FA0711F4EBEA3FC2E436A0E045
:1001AC00FA0711F4EBEA39C2E435A0E0FA0711F4CE
:1001BC00E5EA33C2E437A0E0FA0711F4E5EA2DC210
:1001CC00E534A0E0FA0711F4E5EE27C2E536A0E02D
:1001DC00FA0711F4E5EE21C2E834A0E0FA0711F4B5
:1001EC00EFE81BC2E836A0E0FA0711F4EFE815C2FD
:1001FC00EC34A0E0FA0711F4E5E20FC2EC36A0E013
:10020C00FA0711F4E5E209C2EF34A0E0FA0711F4A1
:10021C00E9EA03C2EF36A0E0FA0711F4E9EAFDC1FE
:10022C00E035A0E0FA0711F4E7ECF7C1E037A0E005
:10023C00FA0711F4E7ECF1C1E936A0E0FA0711F482
:10024C00E1E0EBC1E934A0E0FA0711F4E1E0E5C12B
:10025C00E235A0E0FA0711F4E8E8DFC1E237A0E0EC
:10026C00FA0711F4E8E8D9C1E634A0E0FA0711F472
:10027C00E5ECD3C1E636A0E0FA0711F4E5ECCDC10C
:10028C00EE34A0E0FA0711F4E9E8C7C1EE36A0E0BD
:10029C00FA0711F4E9E8C1C1ED32A0E0FA0711F454
:1002AC00E0E8BBC1309711F4E0E0B7C1EA30A0E060
:1002BC00FA0711F4E7EFB1C1EB30A0E0FA0711F443
:1002CC00E1E3ABC1EC30A0E0FA0711F4EBEDA5C112
:1002DC00ED30A0E0FA0711F4EBE79FC1EE30A0E09F
:1002EC00FA0711F4EDE399C1EF30A0E0FA0711F42D
:1002FC00EEE793C1E031A0E0FA0711F4EEEF8DC107
:10030C00E131A0E0FA0711F4E3E387C1E231A0E0A8
:10031C00FA0711F4EFEF81C1E331A0E0FA0711F411
:10032C00EFE77BC1E88179C1AA93E981F0E0E05A5B
:10033C00FE4FA881A083229608955394E52DF0E0FA
:10034C00E370F070309739F4A091600145D3C19AF5
:10035C009298AD9813C052D339F4A09161013CD35B
:10036C00C198929AAD980AC0E230A0E0FA0731F435
:10037C00A091620131D3C1989298AD9A089529D376
:10038C00E066E7B98BE18A95F1F7369A349BFECF9C
:10039C00349AE5B142C10895A6E034D331D42ED4B9
:1003AC00EF93A7E02FD32ED429D4AF91EA2BEF9360
:1003BC00A0E028D3F595E79521D4AF91EA2B0895C9
:1003CC0065D4EADF3E2F373019F47724E7E02EC0EE
:1003DC00A5E01CD310E0153068F4DEDF0E2F3017CB
:1003EC0011F4302F03C07724E7E020C0A5E00ED332
:1003FC001F5FF1CF772011F024E101C024E6CCDFA0
:10040C00E73011F0203009F404C0AAE0FFD22150EB
:10041C00F6CF203041F0772019F07724E7E006C0C2
:10042C007724E02F03C0E1E07E2EE02F34D4249615
:10043C000895C298BA9A0895C29A0895C2980895D8
:10044C00A0916601B0916701119721F400240A1460
:10045C000B0408F014C0A4E6B1E0DAD2DFD2A43F5A
:10046C00E1E0BE0738F0E0E0E0936401E093650161
:10047C00E3DF05C0D3D2AA16BB0609F4DFDF08956B
:10048C00A8D2E03049F0E1E0F0E0E0936601F093AF
:10049C006701C9D2862C06C0E0E0E0936601E093C8
:1004AC006701CCDFBAC095D2F0E0EA0DFB1DE53F49
:1004BC00A1E0FA0728F4E881F0E0AE0EBF1E03C0FD
:1004CC00E4EFF1E05F01A9C084D2D501F0E0AE17F2
:1004DC00BF0728F0A881BB27AA1ABB0A02C0AA240E
:1004EC00BB249BC0992019F4E1E0E0936901A0E7DB
:1004FC00B1E08ED2E0916901F0E03097C9F4E82DBB
:10050C0095D2BCD2C0D2309761F4E0916A01E03050
:10051C0021F0E0E0BCD2A4E503C0E1E0B8D2A0E059
:10052C0003DFBAD220F0BDD2E1E0E093690112C042
:10053C0065D281F4BCD2C6D2D4D2D6D2C3D2D9D24F
:10054C00D3D2E05DAE2FF0DEA7D220F0AAD2E0E04D
:10055C00E09369010895CDD2CFD2D1D231C0C9D2A6
:10056C00ADE2D3D2ADE2D3D2ADE22AC0C2D2A5E382
:10057C00CCD2A0E5CCD2A4E623C0BBD2A4E5C5D294
:10058C00AEE6C5D2A2E51CC0B4D2A4E5BED2A5E4A9
:10059C00BED2AEE415C0ADD2A5E4B7D2AEE4B7D2AC
:1005AC00A4E40EC084D28ED29CD29ED28BD2A1D285
:1005BC009BD2E05DAE2F04C0E62D38D29AD2A4E5D2
:1005CC00B3DE0895992031F094D296D2AEE49FD246
:1005DC00A0E003C08ED290D292D2A6DE0895AA9348
:1005EC00A62DBB27E881F0E0AE0FBF1FA436E0E0DC
:1005FC00BE071CF4E8816E0E02C0E3E66E2E0DC041
:10060C00E8D1F0E03196A62DB0E0AE17BF071CF094
:10061C00A8816A1A02C0E1E06E2E21960895AA9371
:10062C00EA93FA93EFB7EA93E0917C01E030A9F0FA
:10063C00E150E0937C01E0917B01EF5FE0937B0163
:10064C00E150F0E0EE58FE4FE081ECB9A0917B0157
:10065C00A83019F4E0E0E0937B01E991EFBFF99148
:10066C00E991A991189557D2E3E8E2BF66DE99208B
:10067C0021F05FD211F0882009F40BC0F6013196FD
:10068C006F013197E0E6FAEECE16DF0610F0CBD113
:10069C008A9404C040D2ECE9E4BDD2DEE991EFBF0C
:1006AC00F991E991B991A99199918991799169916E
:1006BC00F99019900990189542D2C3D2E53618F0EA
:1006CC003ED2E2E3D2D23ED2BCD2E23018F03AD2E1
:1006DC00E0E0CBD23AD2B1D2E53FA1E0FA0720F06C
:1006EC0034D2E8ECF0E0B9D22AD2ABD26E2E2AD2B8
:1006FC00A8D29E2E2AD2A1D25F0108959ADECFDC19
:10070C004ADEDADFA8EEB3E06FD20895E0E0E7BB93
:10071C00E8BBE4BBE5BBE1BBE2BBE3E0E3BFE3E882
:10072C00E2BFE0E0EFBDEEBDEDBDECBDE7BDE6BD6B
:10073C00EBBDEABDE9BDE8BDE2BDE2E0E5BDE0E050
:10074C00E4BDE3BDE1E4E9BFE0E0E5BFEBB9E8E41B
:10075C00EAB9E6E8E0BDE0E0E0BDE3E3E9B9E0E8F2
:10076C00E8B9E0E0E0BFE0E6E7B9E7E8E6B9E0E0E9
:10077C00E0BFEDB9E6BF7894C1DF992021F0D9D163
:10078C0011F0882009F001C0E3D11ADE1E2FE09190
:10079C006801F0E03097C9F4133011F4772009F4B4
:1007AC0002C0DCD103C0163009F4E4D1173011F4C7
:1007BC00E7D101C0E8D1EDD1A536E0E0BE0718F0D5
:1007CC00E2E0ECD101C0C7DE00C118D161F41330F6
:1007DC0011F4772009F402C0C1D103C0163009F41A
:1007EC00B7D180DEF2C0E230A0E0FA0761F413303A
:1007FC0011F4772009F402C0B1D103C0163009F40A
:10080C00B9D1ADDEE2C0E330A0E0FA0791F41330C9
:10081C0011F4772009F408C0B0DEC3D1C5D119F4A6
:10082C00E5E0BCD1C7D104C0173011F4E7E0C6D164
:10083C00CCC0E430A0E0FA0791F4133011F4772027
:10084C0009F408C093DEADD1AFD119F4E3E0A6D121
:10085C00B1D104C0173011F4E8E0B0D1B6C0E53026
:10086C00A0E0FA0791F4133011F4772009F408C0D2
:10087C008BDE97D199D119F4E6E090D19BD104C0CD
:10088C00173011F4E9E09AD1A0C0E630A0E0FA07E5
:10089C0099F4133011F4772009F404C07CDE73D181
:1008AC00E6E007C0173039F444D111F0E1E001C0A3
:1008BC00E2E0E093680189C0E730A0E0FA0759F55F
:1008CC00163039F4772011F0A5E001C0A1E087DEE5
:1008DC0012C0153039F4772011F0A5E001C0A1E069
:1008EC008FDE09C0133039F46CD111F0E1E001C096
:1008FC00E2E0E0936801173059F442D168D138F046
:10090C0060D111F0E1E001C0E2E0E093680101C0C8
:10091C003AD152DE5AC0E830A0E0FA0771F5163031
:10092C0039F4772011F0A5E001C0A1E0BCDD12C0C4
:10093C00153039F4772011F0A5E001C0A1E0C4DD39
:10094C0009C0133039F448D111F0E1E001C0E2E004
:10095C00E0936801173071F413D11BD1A132E3E09D
:10096C00BE0738F039D111F0E1E001C0E2E0E093CC
:10097C00680101C008D116DE28C0E930A0E0FA07F2
:10098C0011F5163019F4E1E09E2E0DC0153011F45E
:10099C00992409C0133039F423D111F0E1E001C0DE
:1009AC00E2E0E0936801173059F4EAD010D138F046
:1009BC0017D111F0E1E001C0E2E0E093680101C061
:1009CC00E2D000DE02C0E2E0F9D0AAE01FD0D5CE22
:1009DC00FFCFAA93E881089579DB4E2EEE0FEE0F30
:1009EC00E87FAE2FE2B3E770EA2BE2BBE42DE17CAB
:1009FC00AE2FE8B3EE73EA2BE8BB0895E130A0E02C
:100A0C00FA070895BCDCE078F0E00895B0E0ECC0A3
:100A1C00ED91FD913196FE93EE930895A0916401B2
:100A2C00B09165010895CC24DD240895F0E0E093A5
:100A3C006B01F0936C01E2E0EA93A0916B01B09131
:100A4C006C01EAE0F0E0F6D0E05DAE2F6DDCA09139
:100A5C006B01B0916C01EAE0F0E0D9D0E0936B014E
:100A6C00F0936C01E1E0EA93A0916B01B0916C0101
:100A7C00EAE0F0E0DFD0E05DAE2F56CCA091700143
:100A8C00B09171010895EAE0F0E0D4D00895E093BC
:100A9C006A01E0E0EA930895F1DFA93CE0E0BE07CB
:100AAC000895E0E0E0937001E09371010895A09245
:100ABC006B01B0926C01E2E0EA93A0916B01B091F2
:100ACC006C01E1CFE05DAE2F2FDCA0916B01B091FA
:100ADC006C01EAE0F0E09BD0E0936B01F0936C01C9
:100AEC000895E1E0EA930895A0916B01B0916C0137
:100AFC00CACFE0E0EA930895AFE616DCF2CFA6E4A5
:100B0C0013DCE2E0EA93A6E408950EDCEACF0CDCF9
:100B1C00E2E0EA9308950A921A92FA926A937A930F
:100B2C008A939A93AA93BA93EA93FA93EFB7EA93B8
:100B3C000895E0916601F091670130970895AAE05D
:100B4C00B0E00895ABE0B0E00895ACE0B0E00895FB
:100B5C00A0E096DCE0E0E09368010895E4E0E09327
:100B6C006801E0E0E0936E01E0936F01E8E0E09350
:100B7C006D010895A1E084DCE1E0E0936801089543
:100B8C00AEE6B1E045CFE0E0E0936E01E0936F019B
:100B9C000895A0916E01B0916F010895E0936801E2
:100BAC00F2CFE0916D010895E150E0936D01F9DF12
:100BBC00E0300895E8E0E0936D010895E09368015A
:100BCC00089531DF862CE62DBADF4FD0B2CFE1DFAE
:100BDC00A935E2E0BE070895F501B7DF3ED0A9CFF5
:100BEC00E92DB0DF42D0A5CF109639F080ED97E01B
:100BFC000197F1F7A8951197C9F70895F595E79521
:100C0C00F595E795F595E795F595E7950895002405
:100C1C00112490E1AA0FBB1F001C111C0E1A1F0AF5
:100C2C0018F40E0E1F1E01C0A1609A9599F7FD01D4
:100C3C00D0010895ECDFFD010895119602D0FE2F2E
:100C4C001197E199FECFFF93FFB7F894AEBBBFBBF2
:100C5C00E09AEDB3FFBFFF91089507D01196EF9383
:100C6C00EF2F03D0EF9111970895E19B02C0A89547
:100C7C00FCCF9FB7F894AEBBBFBBE09A8DB3E8171F
:100C8C0019F0EDBBE29AE19A9FBF08953A932A932B
:100C9C001A930A9308953B812A811981088108953A
:00000001FF
