:020000040000FA
:100000000C949B050C94F5170C94CE170C94C30517
:100010000C94C3050C94C3050C94C3050C94C30540
:100020000C94C3050C94C3050C94C3050C94C30530
:100030000C94C3050C94C3050C94C3050C94C30520
:100040000C9484170C94C3050C94C3050C94C3053D
:100050000C94C3050C94C3050C94C3050C94C30500
:100060000C941C180C94C3053A30300054494D458B
:1000700052005350454544004F4646002F004C4F18
:10008000570000000000003E5B4F5B3E3E6B4F6B35
:100090003E1C3E7C3E1C183C7E3C181C577D571C69
:1000A0001C5E7F5E1C00183C1800FFE7C3E7FF00E2
:1000B00018241800FFE7DBE7FF30483A060E262930
:1000C000792926407F050507407F05253F5A3CE7F3
:1000D0003C5A7F3E1C1C08081C1C3E7F14227F22B9
:1000E000145F5F005F5F06097F017F006689956A84
:1000F000606060606094A2FFA29408047E0408100F
:10010000207E201008082A1C08081C2A08081E1037
:100110001010100C1E0C1E0C30383E3830060E3EEF
:100120000E06000000000000005F0000000700074E
:1001300000147F147F14242A7F2A12231308646278
:1001400036495620500008070300001C22410000D9
:1001500041221C002A1C7F1C2A08083E0808008037
:1001600070300008080808080000606000201008CF
:1001700004023E5149453E00427F400072494949D0
:10018000462141494D331814127F10274545453902
:100190003C4A494931412111090736494949364606
:1001A0004949291E000014000000403400000008E6
:1001B0001422411414141414004122140802015989
:1001C00009063E415D594E7C1211127C7F49494916
:1001D000363E414141227F4141413E7F49494941AB
:1001E0007F090909013E414151737F0808087F00DA
:1001F000417F41002040413F017F081422417F4060
:100200004040407F021C027F7F0408107F3E414136
:10021000413E7F090909063E4151215E7F091929A6
:1002200046264949493203017F01033F4040403F90
:100230001F2040201F3F4038403F631408146303D1
:10024000047804036159494D43007F414141020450
:10025000081020004141417F040201020440404057
:100260004040000307080020545478407F2844444D
:10027000383844444428384444287F385454541867
:1002800000087E090218A4A49C787F080404780062
:10029000447D40002040403D007F10284400004144
:1002A0007F40007C047804787C0804047838444457
:1002B0004438FC1824241818242418FC7C0804044E
:1002C00008485454542404043F44243C4040207CB7
:1002D0001C2040201C3C4030403C44281028444C0A
:1002E0009090907C4464544C4400083641000000D7
:1002F000770000004136080002010204023C262378
:10030000263C1EA1A161123A4040207A385454552F
:1003100059215555794122545478422155547840F9
:1003200020545579400C1E52721239555555593981
:100330005454545939555454580000457C410002D6
:10034000457D420001457C407D1211127DF028253B
:1003500028F07C545545002054547C547C0A097F75
:100360004932494949323A4444443A324A48483089
:100370003A4141217A3A42402078009DA0A07D3D3B
:100380004242423D3D4040403D3C24FF2424487EC3
:100390004943662B2FFC2F2BFF0929F620C0887EAE
:1003A000090320545479410000447D413048484AB3
:1003B00032384040227A007A0A0A727D0D19317D66
:1003C0002629292F28262929292630484D4020383A
:1003D0000808080808080808382F10C8ACBA2F10F9
:1003E0002834FA00007B000008142A142222142A60
:1003F00014085500550055AA55AA55AAFF55FF5592
:10040000FF000000FF00101010FF00141414FF0084
:100410001010FF00FF1010F010F0141414FC001462
:1004200014F700FF0000FF00FF1414F404FC141480
:1004300017101F10101F101F1414141F001010107D
:10044000F0000000001F101010101F10101010F00E
:1004500010000000FF101010101010101010FF10EE
:10046000000000FF140000FF00FF00001F10170035
:1004700000FC04F414141710171414F404F400000E
:10048000FF00F714141414141414F700F7141414C0
:10049000171410101F101F141414F4141010F0105F
:1004A000F000001F101F0000001F14000000FC14CB
:1004B0000000F010F01010FF10FF141414FF1410BF
:1004C00010101F00000000F010FFFFFFFFFFF0F012
:1004D000F0F0F0FFFFFF0000000000FFFF0F0F0F24
:1004E0000F0F3844443844FC4A4A4A347E0202061C
:1004F00006027E027E0263554941633844443C044F
:10050000407E201E2006027E020299A5E7A5991CC6
:100510002A492A1C4C7201724C304A4D4D303048E9
:10052000784830BC625A463D3E494949007E010147
:10053000017E2A2A2A2A2A44445F444440514A44DC
:100540004040444A51400000FF0103E080FF0000AA
:1005500008086B6B083612362436060F090F0600A2
:100560000018180000001010003040FF0101001FAB
:1005700001011E00191D1712003C3C3C3C0000000C
:100580000000000103070F1F3F7F0080C0E0F0F86C
:10059000FCFE0000000023002600290000000008E7
:1005A000000201000003040700000000000000003A
:1005B00000000000240027002A00DB40A4A62EAF84
:1005C0002000A1C8D300408DAED580A80102040848
:1005D00010204080010204081020010204081020AD
:1005E00000000000250028002B000404040404047B
:1005F00004040202020202020303030303030000D5
:10060000600000000000000000000000000000E0AA
:100610000000000000000000000000000001E000F9
:1006200000000000000000000000000001F00000D9
:10063000000000000000000000000003F0000000C7
:100640000000000000000000000007F000000000B3
:1006500000000000000000000007F800000000009B
:1006600000000000000000000FF800000003C000C0
:100670007E000001E0007F0FF800000003C000FED4
:10068000000001E000FFEFF800000003C000FE00E2
:100690000001E000FFFFF800000003C000F00000D0
:1006A000000F007FFE7FC0000003C000F0000000CC
:1006B0000F003FFE7FF83FF1FBCFFCFEF3BC3DEFA8
:1006C000E01FFE7FFF7FFBFFDFFEFEFFBC3DEFE094
:1006D0001FC6FFFF7FFBFFDFFEFEFFBC3DEFE00F0D
:1006E000E3C7FE787BC3DE1EF0FFBC3DEF0007FFD3
:1006F00087FC787BC3DE1EF0F83C3DEF0001FFFF76
:10070000F0007BC3C01EF0F03C3DEF0001F37FE042
:100710003FFBC3CFFEF0F03C3DEF0003E33F807FA3
:10072000FBC3DFFEF0F03C3DEF0007E73C00787BC9
:10073000C3DE1EF0F03C3DEF0007FFBE00787BC338
:10074000DE1EF0F03C3DEF0007FFFE00787BC3DECD
:100750001EF0F03C3DEF000FFFFE007FFBFFDFFED1
:10076000F0F03FFDEFE00FFFFF007FFBFFDFFEF04B
:10077000F03FFDEFE00FF9FF003E79F9CF9EF0F07A
:100780001F3DE7E01FF1FF00000000000000000037
:100790000000001F80FF007FFFFFFFFFFFFFFFFF44
:1007A000FFE01C007F007FFFFFFFFEB46D888D1807
:1007B000E000001F007FFFFFFFFE95AD7DB577E0F5
:1007C00000000F007FFFFFFFFEA5AD9D8D19E0002B
:1007D0000006007FFFFFFFFEB5ADEDB57EE0000037
:1007E0000000000180000000000000000000038005
:1007F00000000000000000000007C0000000000032
:100800000000000007C00000000000000000000F12
:10081000C00000000000000000001FE00000000019
:1008200000000000001FE0000000000000000000C9
:100830003FE00000000000000000003FF00000006A
:100840000000000000007FF0000000000000001F1A
:10085000F87FF0000000000000003FFE7FF0000085
:1008600000000000003FFF7FF000000000000000DB
:100870001FFFFBE0000000000000000FFFF9FFC0B9
:100880000000000000000FFFF9FFF800000000006A
:100890000007FFF1FFFF00000000000003FC73FFF2
:1008A000FF80000000000001FE3FFFFF800000000D
:1008B000000000FF1E0FFF000000000000007FFE90
:1008C0001FFC000000000000003FFFFFF8000000D8
:1008D000000000000FDFFFE0000000000000001F2C
:1008E00019FFC0000000000000003F3CFF000000B6
:1008F00000000000007E7CF8000000000000000006
:100900007FFE7C0000000000000000FFFFFC0000F4
:10091000000000000000FFFFFE00000000000000DB
:1009200000FFFFFE0000000000000001FFEFFE00DE
:1009300000000000000001FFCFFE000000000000EA
:100940000003FF07FE0000000000000003FC07FE9C
:100950000000000000000003F003FE0000000000A3
:100960000000018000FE0000000000000000000008
:100970007E000000000000000000003E00000000BB
:100980000000000000000C000000000000078000D4
:10099000FC000003C0000000078001FC000003C051
:1009A000000000078001FC000003C0000000078079
:1009B00001E00000001E000000078001E0000000D0
:1009C0001E007FE3F79FF9FDE7787BDFC0FFF7FFAD
:1009D000BFFDFDFF787BDFC0FFF7FFBFFDFDFF78A8
:1009E0007BDFC0F0F787BC3DE1FF787BDE00F0F7EE
:1009F00087BC3DE1F0787BDE0000F787803DE1E0D9
:100A0000787BDE007FF7879FFDE1E0787BDE00FFEB
:100A1000F787BFFDE1E0787BDE00F0F787BC3DE1C2
:100A2000E0787BDE00F0F787BC3DE1E0787BDE001C
:100A3000F0F787BC3DE1E0787BDE00FFF7FFBFFD0C
:100A4000E1E07FFBDFC0FFF7FFBFFDE1E07FFBDF01
:100A5000C07CF3F39F3DE1E03E7BCFC0000000008F
:100A600000000000000000FFFFFFFFFFFFFFFFFF8F
:100A7000FFC0FFFFFFFFFD68DB111A31C0FFFFFF62
:100A8000FFFD2B5AFB6AEFC0FFFFFFFFFD4B5B3BF7
:100A90001A33C0FFFFFFFFFD6B5BDB6AFDC02D005B
:100AA0002F007C005C00455849545F535441544525
:100AB0000054494D45522D454E440054494D455230
:100AC00020454E440044495341424C452054494D31
:100AD00045522000454E41424C452054494D455217
:100AE0002000206D696E005345542054494D452027
:100AF000004558495400454E41424C452054494D0B
:100B00004552005345542054494D4552007777775C
:100B10002E736F667463697263756974732E696E80
:100B200000627900466C6F2D50756D70002200FFD9
:100B300021003B194B2111241FBECFEFD8E0DEBFAF
:100B4000CDBF11E0A0E0B1E0E4EDF5E402C0059016
:100B50000D92A836B107D9F722E0A8E6B1E001C0AE
:100B60001D92AC39B207E1F715E0CAE9D5E004C03F
:100B70002197FE010E94A621C939D107C9F70E9419
:100B800096190C94DD220C940000089508950895A0
:100B9000AF92BF92CF92DF92EF92FF920F931F938B
:100BA000CF93DF936C017B018B01040F151FEB01C9
:100BB0005E01AE18BF08C017D10759F06991D60180
:100BC000ED91FC910190F081E02DC6010995892BF2
:100BD00079F7C501DF91CF911F910F91FF90EF90B1
:100BE000DF90CF90BF90AF900895833081F028F4CC
:100BF000813099F08230A9F008958730A9F08830CB
:100C0000C9F08430B1F4809180008F7D03C0809161
:100C100080008F7780938000089584B58F7784BD9E
:100C2000089584B58F7DFBCF8091B0008F7780933E
:100C3000B00008958091B0008F7DF9CFCF93DF93FE
:100C4000282F30E0F901E456FA4F8491F901E4537A
:100C5000FA4FD491F901E651FA4FC491CC23A1F097
:100C600081110E94F505EC2FF0E0EE0FFF1FEE560C
:100C7000FA4FA591B491EC91ED2381E090E009F455
:100C800080E0DF91CF91089580E090E0FACF1F934C
:100C9000CF93DF93282F30E0F901E456FA4F849187
:100CA000F901E453FA4FD491F901E651FA4FC49196
:100CB000CC23A9F0162F81110E94F505EC2FF0E04E
:100CC000EE0FFF1FE052FA4FA591B4918FB7F89441
:100CD000EC91111108C0D095DE23DC938FBFDF911A
:100CE000CF911F910895DE2BF8CFCF93DF9390E043
:100CF000FC01E453FA4F249186519A4FFC018491F0
:100D00008823D1F090E0880F991FFC01E055FA4F3D
:100D1000A591B491FC01E052FA4FC591D4916111B3
:100D20000EC09FB7F8948C91E22FE0958E238C93A0
:100D30002881E223E8839FBFDF91CF9108958FB789
:100D4000F894EC91E22BEC938FBFF6CF3FB7F89479
:100D500080911D0290911E02A0911F02B09120026D
:100D600026B5A89B05C02F3F19F00196A11DB11D06
:100D70003FBFBA2FA92F982F8827BC01CD01620F42
:100D8000711D811D911D42E0660F771F881F991FFD
:100D90004A95D1F708958F929F92AF92BF92CF92CA
:100DA000DF92EF92FF924B015C010E94A6066B015D
:100DB0007C010E94A6066C197D098E099F09683E78
:100DC000734081059105A8F321E0821A9108A108DA
:100DD000B10888EEC80E83E0D81EE11CF11C811416
:100DE0009104A104B10429F7FF90EF90DF90CF9018
:100DF000BF90AF909F908F9008952FB7F894609117
:100E0000190270911A0280911B0290911C022FBF4F
:100E100008950895EF92FF920F931F93CF93DF935E
:100E2000EC01EC80FD806E157F050CF070C057FF63
:100E300004C0240F351F50E040E08E819F81FA01ED
:100E4000E20FF31F8E179F071CF49C01241B350B28
:100E5000121613060CF05BC0922F842F8695869590
:100E600086958E9DD0018F9DB00D11246A0F7B1F3A
:100E7000AF8DB8A1A60FB71F477049F188E0841B5A
:100E8000482F682F70E0FB01E657FA4FE4912817CE
:100E900008F063C0621B71092FEF30E002C0359586
:100EA00027956A95E2F7E2230130110539F0B0F198
:100EB0000230110561F58C91E82702C08C91E82B76
:100EC000EC93941720F12C813D81A20FB31FE92FE1
:100ED000E41BE83078F00230110521F58E2F9C914B
:100EE00090959C932C813D81A20FB31F8850883030
:100EF000B0F7E770EE2359F0F0E0EE57FA4FE491C7
:100F000001301105F9F010F10230110519F1DF91EE
:100F1000CF911F910F91FF90EF900895E0958C91E4
:100F2000E823CECF81E00115110509F480E0819519
:100F30009E2F8C932C813D81A20FB31F9850983027
:100F4000C0F7D7CF8C91E82BEC93E1CFE0958C9153
:100F5000E823FACF8C91E827F7CF0130110509F487
:100F6000ADCFE0F20230110509F4A5CFAE0DBF1DE3
:100F7000AECF0F931F93CF93DF9377FF04C0260F5D
:100F8000371F70E060E0DC011496CD91DC91FB012D
:100F9000E20FF31FCE17DF071CF49E01261B370B51
:100FA000121613064CF5FA0157FD3796A3E0F59596
:100FB000E795AA95E1F7EC9FD001ED9FB00DFC9F5E
:100FC000B00D11246A0F7B1FDC015F96ED91FC913F
:100FD000E60FF71F4770552781E090E001C0880FAA
:100FE0004A95EAF7482F0130110559F0A8F02E0F65
:100FF0003F1F02301105E1F0DF91CF911F910F915A
:1010000008952E0F3F1FE217F307B1F38191DF011F
:101010001197842B8C93F7CF80952E0F3F1FE217EB
:10102000F30751F39191DF01119798239C93F7CF28
:10103000E217F30709F38191DF01119784278C935D
:10104000F7CF0F931F93FA01DC0156964C915697F8
:101050004230E9F04330A1F1413061F514964D91F1
:101060005C91DA01AE1BBF0BFD01E21BF30B77FDB8
:101070000BC0DC0116964D915C916417750724F442
:10108000AB01BF010E94B9071F910F9108951496FB
:101090004D915C91DA01A61BB70BBD01615071093E
:1010A000DC0116964D915C91DA01AE1BBF0BFD0180
:1010B000E21BF30B77FDE8CFAF010E940A07E4CFF4
:1010C00016964D915C91DA01A61BB70BBD016150DC
:1010D0007109CDCF0F931F93FA01DC0156964C9105
:1010E00056974230A9F0433091F1413019F51496EA
:1010F0004D915C91DA01AE1BBF0BFD013197F7FDFD
:1011000004C0AB01BF010E940A071F910F9108950F
:1011100014964D915C91DA01A61BB70BBD01DC0161
:1011200016964D915C91DA01AE1BBF0BFD01319714
:10113000621B730BF7FDE9CFDC0116964D915C91B4
:10114000E417F50714F7AF010E94B907DECF169632
:101150004D915C91DA01A61BB70BBD01621B730BAD
:10116000CECFFC0177FD64C0808591856817790733
:101170000CF05EC057FD5CC0828593854817590707
:101180000CF056C086898230B1F0833029F181306D
:1011900041F484819581841B950BAB01BC016150A6
:1011A00071092130310509F108F443C022303105BD
:1011B00009F463C0089584819581DC01A61BB70BF7
:1011C000BD016150710986819781DC01A41BB50BBB
:1011D000AD0141505109E5CF86819781861B970B60
:1011E000BA01AC0141505109DCCFCA0157FD079645
:1011F000A3E095958795AA95E1F7A481B5818A9F8B
:1012000090018B9F300D9A9F300D1124620F731F38
:10121000078CF0A1E02DE60FF71F4770552721E05E
:1012200030E001C0220F4A95EAF78081822B80834B
:101230000895CA0157FD079633E0959587953A952D
:10124000E1F7A481B5818A9F90018B9F300D9A9F11
:10125000300D1124620F731F078CF0A1E02DE60FF3
:10126000F71F4770552781E090E001C0880F4A952D
:10127000EAF7809590818923DACFCA0157FD079656
:1012800023E0959587952A95E1F7A481B5818A9FFA
:1012900090018B9F300D9A9F300D1124620F731FA8
:1012A000078CF0A1E02DE60FF71F4770552721E0CE
:1012B00030E001C0220F4A95EAF780818227B7CF3C
:1012C00008958EBD00000DB407FEFDCF8EB50895C4
:1012D0008CBD9DBD08950895FC016370668B84816B
:1012E000958126813781613039F0633029F091870B
:1012F0008087338722870895318720879387828765
:1013000008952F923F924F925F926F927F928F92A9
:101310009F92AF92BF92CF92DF92EF92FF920F9384
:101320001F93CF93DF93CDB7DEB76A970FB6F894CC
:10133000DEBF0FBECDBF9A8F898F7A8369834A0142
:10134000D22E18870F833701BC2CDC0159962D91C2
:101350003C915A972115310509F015C118968D91C8
:101360009C911997681779070CF0D7C11A968D913F
:101370009C91481759070CF0D0C14C2C512CB6E069
:10138000CB9E600D711D11247C876B871616170686
:101390000CF0C3C1EA2DF0E0FA87E98793E0EE0F85
:1013A000FF1F9A95E1F7F88BEF87CF01840F951F08
:1013B000181619060CF0B1C1A98DBA8D58968C91EA
:1013C000811104C0BFEABD1508F4D394A98DBA8D6C
:1013D000ED91FC9111970284F385E02DCD010995E3
:1013E000B5E0DB9EC0011124E981FA81FC83EB8327
:1013F000312C212C9C012E573F4F388F2F8B4A2D9B
:1014000050E05E8B4D8BEF89F88DE20DF31D44911A
:101410009E828D82D12CC12C69817A81620D731DCF
:101420007A8B698B842F90E09C8B8B8BE98DFA8D66
:10143000A081B18140FF82C0F1E0BF126FC0AF1246
:101440006DC01C96ED91FC912F813885A4014C0D47
:101450005D1D69897A89898D9A8D0995EB89FC8949
:10146000F595E7954E2F5FEFC51AD50A6D817E8100
:101470008D899E89680F791F7E836D8398E0C916D8
:10148000D10481F6AFEF2A1A3A0AEB81FC81E40D10
:10149000F51DFC83EB83F5E02F16310409F0B3CF83
:1014A0002F81388526153705B9F0A98DBA8DED91B4
:1014B000FC91B1E0BB1257C0AB1255C069817A8173
:1014C0006B5F7F4F0088F189E02D830128E030E0D9
:1014D000A401898D9A8D0995A98DBA8DED91FC9104
:1014E00011970688F789E02DCD016A960FB6F8941A
:1014F000DEBF0FBECDBFDF91CF911F910F91FF9047
:10150000EF90DF90CF90BF90AF909F908F907F90A3
:101510006F905F904F903F902F9009941E96ED91A1
:10152000FC91EF80F88409851A8592014D815E81D6
:101530006B817C81898D9A8D099590CF2F8138851B
:101540002615370509F48ACF31E0B31207C0A3127C
:1015500005C01C96ED91FC91930178CF1E96ED91FC
:10156000FC917301E0CF6B857C8564197509068455
:10157000F785E02D73010F8518899201A401898DEB
:101580009A8D0995A9CFF901349694913297459196
:101590005491D91AB7E0DB9E400D511D1124F90179
:1015A000259134913C8B2B8BFA0125903490FA01D4
:1015B0003296749031963491398B3296649031968C
:1015C000449041E04C1518F04A1508F07FC0662D94
:1015D000062C000C770B7C836B83842D042C000C71
:1015E000990B9E838D83A98DBA8DED91FC911197F6
:1015F0000284F385E02DCD010995512CD12CC12C0D
:10160000EA2DF0E0FA87E9872B2D30E03C872B8725
:10161000A401440D511D47FC5A95588F4F8B698189
:101620007A81660D711D67FC7A957E876D87798951
:10163000C71608F051CF2C2D30E04D815E81420F4E
:10164000531FA985BA854A9FC0014B9F900D5A9F91
:10165000900D1124FC01E80DF91DF88BEF87852D05
:10166000612C4F89588D420F531F5E8B4D8B671431
:1016700008F050C044244394480E877041F4C101DF
:101680000196EB89FC89E20DF31DD4901C01D7FE75
:1016900019C0A98DBA8DED91FC91662D70E0B1E075
:1016A000BB1219C0AB1217C02D853E85620F731F88
:1016B0000484F585E02D2F8138854D895E89898DDB
:1016C0009A8D0995DD0C6394842DD1CF1E821D82E5
:1016D0001C821B8288CF4B815C81640F751FAB8598
:1016E000BC856A9FC0016B9F900D7A9F900D11245D
:1016F00069817A81680F791F0684F785E02DEF8074
:10170000F88409851A859D014F855889898D9A8DA0
:101710000995D8CF570CC3948ACF6A960FB6F89420
:10172000DEBF0FBECDBFDF91CF911F910F91FF9014
:10173000EF90DF90CF90BF90AF909F908F907F9071
:101740006F905F904F903F902F9008958F929F924F
:10175000AF92CF92EF92FF920F931F93CF93DF93AD
:10176000EC01262F898D9A8D009709F051C06A30BF
:10177000D1F41D861C868D8948E0849F9001112438
:101780008E859F85820F931F9F878E8781E090E0D3
:10179000DF91CF911F910F91FF90EF90CF90AF907D
:1017A0009F908F9008956D3089F3CC88AD888F8994
:1017B0008823C1F08C859D8536E0C39E800D911DE8
:1017C0001124488559854817590764F44E855F856B
:1017D0001D861C8638E0A39EC0011124840F951F2E
:1017E0009F878E87EA88FB88088919894E855F85DF
:1017F0006C857D85CE010E9481092C898C859D8513
:1018000046E0249F800D911D11249D878C87BECFBB
:101810006A3069F41D861C86FC013896E4912D8996
:101820008E859F85E29F800D911D1124ADCF6D3077
:1018300009F4ACCFFC0134963491631708F4A6CFB9
:101840003296E491E61708F4A1CFFC013296859018
:101850009490462F431B342F47E0349F800C911CFB
:101860001124F401329634913196E4913323A9F195
:10187000EE2399F1CC88F4013596E491AD884F8937
:10188000442301F10E2E000CFF0BE30FF11DCE9E41
:10189000A001CF9E500D11246C857D85460F571FEA
:1018A00068857985641775076CF44E855F851D869C
:1018B0001C86FC013896E491AE9E400D511D11240A
:1018C0005F874E87EA88FB88088919894E855F857E
:1018D0006C857D85CE010E948109F4013496E491E6
:1018E0002C898C859D85E29F800D911D11248DCFC3
:1018F0000F931F93CF93DF938C01D0E0C0E0F801EA
:10190000EC0FFD1F6491662341F088E592E00E9490
:10191000A60B892B11F02196F2CFCE01DF91CF914A
:101920001F910F9108956F927F928F929F92AF9225
:10193000BF92CF92DF92EF92FF920F931F93CF93BC
:10194000DF93EC016B015A0139014801E881F9810B
:101950000284F385E02D0995E881F9810288F389F5
:10196000E02D87019301A501B601CE010995A501DE
:10197000480D591D41505109E881F9810288F389C8
:10198000E02D9301B601CE010995E881F981008827
:10199000F189E02D9401A501B601CE010995C60C8F
:1019A000D71CB60161507109E881F9810088F1897D
:1019B000E02D9401A501CE010995E881F981068801
:1019C000F789E02DCE01DF91CF911F910F91FF900C
:1019D000EF90DF90CF90BF90AF909F908F907F90CF
:1019E0006F9009946F927F928F929F92AF92BF9265
:1019F000CF92DF92EF92FF920F931F93CF93DF93DB
:101A00005C01EB016A01490138018701DC01ED91BC
:101A1000FC916217730719F5641675062CF0962D64
:101A2000872D3A01C92ED82E9601261937092F5F26
:101A30003F4F048CF58DE02DA301BE01C501099532
:101A4000DF91CF911F910F91FF90EF90DF90CF909A
:101A5000BF90AF909F908F907F906F9008954615A4
:101A6000570591F42617370724F0892D4B01C22F13
:101A7000D82F9E01281939092F5F3F4F068CF78D0B
:101A8000E02DA601B401DACF0284F385E02D09959B
:101A9000D501ED91FC910488F589E02D8301940135
:101AA000A601BE01C5010995D501ED91FC910688FD
:101AB000F789E02DC501DF91CF911F910F91FF9024
:101AC000EF90DF90CF90BF90AF909F908F907F90DE
:101AD0006F900994EF92FF920F931F93DC011A9677
:101AE0000D911C911B9718962D913C911997ED9192
:101AF000FC9100A0F1A1E02D7B0150E040E070E0FE
:101B000060E009951F910F91FF90EF9008954F921B
:101B10005F926F927F928F929F92AF92BF92CF927D
:101B2000DF92EF92FF920F931F93CF93DF936C019D
:101B30002B015A0139014801DC01ED91FC9102842D
:101B4000F385E02D0995E201640C751CD601ED9139
:101B5000FC91C615D7055CF40088F189E02D87015A
:101B60009401A501BE01C60109952196EFCF068813
:101B7000F789E02DC601DF91CF911F910F91FF9062
:101B8000EF90DF90CF90BF90AF909F908F907F901D
:101B90006F905F904F9009948F929F92AF92BF92F7
:101BA000CF92DF92EF92FF920F931F93CF93DF9329
:101BB000EC015B014A016901E881F9810284F38546
:101BC000E02D099595012C0D3D1D21503109E8812D
:101BD000F9810488F589E02D78018401A401B5011B
:101BE000CE010995E881F9810688F789E02DCE01BB
:101BF000DF91CF911F910F91FF90EF90DF90CF90E9
:101C0000BF90AF909F908F9009948F929F92AF92C8
:101C1000BF92CF92DF92EF92FF920F931F93CF93D9
:101C2000DF93EC015B014A0169017801E881F981E8
:101C30000284F385E02D0995C80CD91C860101505A
:101C40001109E881F9810488F589E02D9501A40145
:101C5000B501CE010995E881F9810688F789E02D63
:101C6000CE01DF91CF911F910F91FF90EF90DF9008
:101C7000CF90BF90AF909F908F900994EF92FF927A
:101C80000F931F93DC01ED91FC9100A0F1A1E02DD9
:101C900009951F910F91FF90EF9008950F931F9357
:101CA000DC01ED91FC91068CF78DE02D09951F91DB
:101CB0000F9108950F931F93DC01ED91FC91048C1B
:101CC000F58DE02D09951F910F910895DC01ED919F
:101CD000FC910084F185E02D09943F924F925F9230
:101CE0006F927F928F929F92AF92BF92CF92DF922C
:101CF000EF92FF920F931F93CF93DF935C017B01D1
:101D00004A016901390187E0680E711C93E07594FE
:101D100067949A95E1F72B01400E511E10E000E008
:101D2000312CD0E0C0E0CE0187709927330C892B8D
:101D300059F4FE0183E0F595E7958A95E1F7E00F08
:101D4000F11FE80DF91D349037FE0AC021E030E0A4
:101D5000A701B5016C0F7D1F88E592E00E94660E19
:101D60002196CC16DD06F9F68FEFE81AF80A060D73
:101D7000171DE414F504A9F6DF91CF911F910F917F
:101D8000FF90EF90DF90CF90BF90AF909F908F909B
:101D90007F906F905F904F903F9008952F923F9269
:101DA0004F925F926F927F928F929F92AF92BF926B
:101DB000CF92DF92EF92FF920F931F93CF93DF9317
:101DC0007C016B01EA0181E090E05C01A41AB50A94
:101DD00066247724641A750A660C771C10E000E00C
:101DE00088248394912C822F8470582E822F8270A5
:101DF000482E822F8870382E2170222E0C171D0736
:101E00000CF079C0B7FC06C0219782E0680E711C07
:101E1000A60CB71C0F5F1F4F82E0880E911CA80C08
:101E2000B91C5520C1F021E030E0AE014C0D5D1D24
:101E3000B701600F711F88E592E00E94660E21E0F5
:101E400030E0A601400F511FBE016E0D7F1D88E5D9
:101E500092E00E94660E4420C1F021E030E0A6012D
:101E60004C1B5D0BB701600F711F88E592E00E946B
:101E7000660E21E030E0A601401B510BBE016E0D45
:101E80007F1D88E592E00E94660E3320C1F021E0BC
:101E900030E0A601400F511FB7016C1B7D0B88E598
:101EA00092E00E94660E21E030E0AE014C0D5D1D17
:101EB000B701601B710B88E592E00E94660E22203C
:101EC00009F49CCF21E030E0A601401B510BB70183
:101ED0006C1B7D0B88E592E00E94660E21E030E0ED
:101EE000A6014C1B5D0BB701601B710B88E592E0EE
:101EF0000E94660E83CFDF91CF911F910F91FF90CB
:101F0000EF90DF90CF90BF90AF909F908F907F9099
:101F10006F905F904F903F902F9008952F923F9237
:101F20004F925F926F927F928F929F92AF92BF92E9
:101F3000CF92DF92EF92FF920F931F93CF93DF9395
:101F400000D000D000D0CDB7DEB73C016A013E839F
:101F50002D83FC82EB825801A41AB50AB7FE03C098
:101F6000B194A194B1088D809E80861A970A97FE3D
:101F700003C09194819491088A149B045CF0902F83
:101F8000812F0D811E819D838E839C2D8D2D6B0154
:101F9000692F782F0C151D055CF09D818E817E8345
:101FA0006D83692F782F902F812F8601C92ED82E0F
:101FB0001601201A310A2B012D813E81421A530A43
:101FC00057FE03C0519441945108710137FE03C07C
:101FD0003FEFE31AF30AF594E7948D819E8186170B
:101FE00097075CF5A1E0B0E0BA83A983C016D106DB
:101FF0004CF1D301ED91FC910484F585E02D2B810A
:102000003C81A8016D817E818A149B041CF04D8166
:102010005E81B801C3010995E418F508F7FE0AC00E
:102020002D813E8189819A81280F391F3E832D831E
:10203000E20CF31C0F5F1F4FD9CF2FEF3FEF3A8316
:102040002983D4CF26960FB6F894DEBF0FBECDBF3E
:10205000DF91CF911F910F91FF90EF90DF90CF9084
:10206000BF90AF909F908F907F906F905F904F90B8
:102070003F902F90089508952091CE01260F332789
:10208000331F21323105ECF42091F201FC0190E084
:1020900080E0243069F082E00895A091CE01219182
:1020A000AC0142555E4FA40FB52FB11D2C93019684
:1020B000861798F38091CE01680F6093CE0180E07F
:1020C000089581E008951092F20181E08093F40177
:1020D0001092F30161E082E10E94470661E083E132
:1020E0000E944706E9EBF0E080818E7F808380814B
:1020F0008D7F808388E48093B80085E48093BC0062
:102100000895CF93DF9391E09093AD018823B9F0C8
:10211000C091B800D091BA008091BC008A7B8093B6
:10212000BC0060E082E10E94470660E083E10E941B
:1021300047060E946310D093BA00C093B800DF91A5
:10214000CF910895E091270280912602E81730F49C
:10215000F0E0E857FE4F808190E008958FEF9FEF09
:10216000089590912702809126022FEF3FEF981754
:1021700048F4E92FF0E0E857FE4F208130E09F5F00
:1021800090932702C9010895809126029091270219
:10219000891B990B0895CF92DF92EF92FF920F93D4
:1021A0001F93CF93DF937C01CB018A0120914B02D7
:1021B000222389F0EB016B01C40ED51ECC15DD0581
:1021C00069F06991D701ED91FC910190F081E02DCA
:1021D000C7010995F3CF642F0E943C10C801DF911D
:1021E000CF911F910F91FF90EF90DF90CF900895C6
:1021F000CF93DF931F92CDB7DEB7698320914B0257
:102200002223F9F020914802203258F021E030E0FA
:10221000FC013383228390E080E00F90DF91CF9127
:10222000089580914902E82FF0E0E859FE4F998126
:1022300090838F5F809349028093480281E090E011
:10224000ECCF61E0CE0101960E943C10F7CFCF9217
:10225000DF92EF92FF920F931F93CF93DF93D09172
:10226000480281E0D13208F09CC0C0914A020E942D
:10227000A6066B017C018091F20181116CC082E0A5
:102280008093F20181E08093F4018FEF8093F1015C
:1022900010921602D0931502A8E6B1E0E5EFF1E046
:1022A00080E0D8138DC01092170280911702CC0FD6
:1022B000C82BC09317028091F301813009F084C0CC
:1022C0001092F3010E94A6066B017C018091170217
:1022D0008093BB008091A9019091AA01A091AB01CC
:1022E000B091AC01892B8A2B8B2BA1F00E94A60602
:1022F0000091A9011091AA012091AB013091AC018C
:102300006C197D098E099F090617170728073907D9
:1023100008F442C08091BC0083FDD8CF85EC809347
:10232000BC000E94A6066B017C018091F201823004
:1023300009F44CC08091F1018F3F09F469C080918C
:10234000F101803209F466C08091F101803309F413
:1023500063C084E026C08091A9019091AA01A09158
:10236000AB01B091AC01892B8A2B8B2B09F483CF65
:102370000E94A6060091A9011091AA012091AB012B
:102380003091AC016C197D098E099F09061717075A
:102390002807390708F06FCF8091A8010E948110AB
:1023A00085E0109249021092480210924B02DF9190
:1023B000CF911F910F91FF90EF90DF90CF900895F4
:1023C0009D9191938F5F6DCF85EEA9CF8091A901EB
:1023D0009091AA01A091AB01B091AC01892B8A2BFD
:1023E0008B2B09F4A2CF0E94A6060091A90110919F
:1023F000AA012091AB013091AC016C197D098E09C5
:102400009F09061717072807390708F08ECFC4CF92
:1024100080E0C7CF82E0C5CF83E0C3CFEF92FF92C9
:102420000F931F93CF93DF937C01C62F809175028A
:1024300090917602009709F459C02091790231E019
:1024400030934B0220934A021092490210924802A4
:10245000DC01ED91FC910190F081E02D60E00995A7
:102460008701EE24E394F12CD1E0C15080917502F4
:1024700090917602CF3F91F1B0E2EB16F104D8F0E3
:102480000E94271180917502909176022091790225
:10249000D0934B0220934A021092490210924802B4
:1024A000DC01ED91FC910190F081E02D60E0099557
:1024B000EE24E394F12C8091750290917602F8015C
:1024C0006491DC01ED91FC910190F081E02D099582
:1024D000BFEFEB1AFB0A0F5F1F4FC7CFDF91CF9102
:1024E0001F910F91FF90EF900C942711E0918502BE
:1024F000F0918602908180918B0280958923808360
:102500008701C15008F438C0F8018491209173020A
:1025100030917402232B29F00E9461090F5F1F4F35
:10252000F0CF28E030E040E8E0918102F0918202B3
:1025300090918902582F5423D9F05081952B908384
:10254000E0918302F0918402908150918A02952B50
:102550009083E0918302F0918402508190918A02ED
:10256000909595239083469521503109E9F6D6CF71
:10257000508190959523E3CFDF91CF911F910F91DB
:10258000FF90EF9008951F93CF93DF93EC018D8D13
:102590009E8D009721F1162F29A131E030934B0237
:1025A00020934A021092490210924802DC01ED91F8
:1025B000FC910190F081E02D60E009958D8D9E8D5C
:1025C000DC01ED91FC910190F081E02D612F0995E6
:1025D0008D8D9E8DDF91CF911F910C942711ADA50C
:1025E000BEA59C918BA9809589238C938B8D9C8D06
:1025F000892B31F0862FDF91CF911F910C946109C7
:1026000028E030E080E8A9A5BAA599A9462F48237B
:10261000C1F04C91942B9C93ABA5BCA59C914AA96D
:10262000942B9C93ABA5BCA54C919AA9909594230F
:102630009C9386952150310931F7DF91CF911F91FD
:1026400008954C9190959423E6CFDF92EF92FF92FC
:102650000F931F93CF93DF93809175029091760231
:10266000892B09F498C020918D0230918E024091FF
:102670008F025091900260E074E284EF90E00E943B
:1026800084212051310941095109569547953795C3
:1026900027952093B80065E08DE29BE00E940E1222
:1026A00060915C02615088E592E00E94C312209123
:1026B0005E0230915F02C901079697FD079633E0ED
:1026C000959587953A95E1F720915C0230915D02EE
:1026D000829F8001839F100D929F100D1124C09145
:1026E0007702D091780280917502909176020C0F5A
:1026F0001D1F009709F48FC02091790231E03093BB
:102700004B0220934A021092490210924802DC01C7
:10271000ED91FC910190F081E02D60E40995EE24AB
:10272000E394F12CDD24D39480917502909176028C
:102730000C171D0709F446C0B0E2EB16F104D8F0FF
:102740000E94271180917502909176022091790262
:10275000D0924B0220934A021092490210924802F2
:10276000DC01ED91FC910190F081E02D60E4099590
:10277000EE24E394F12C8091750290917602699198
:10278000DC01ED91FC910190F081E02D0995BFEF06
:10279000EB1AFB0AC9CF8091730290917402892BC6
:1027A00031F080919602909197020E946809E09121
:1027B0008702F0918802908180918C028095892314
:1027C000808369CF0E9427118091750290917602D3
:1027D000892B09F461C020919102309192024091BD
:1027E00093025091940260E074E284EF90E00E94C2
:1027F0008421205131094109510956954795379552
:1028000027952093B800DF91CF911F910F91FF90F2
:10281000EF90DF900895E0918502F091860280812B
:1028200090918B02892B80830C171D0769F2899187
:102830002091730230917402232B19F00E946109D8
:10284000F3CF28E030E040E8E0918102F09182028D
:1028500090918902582F5423D9F05081952B908361
:10286000E0918302F0918402908150918A02952B2D
:102870009083E0918302F0918402508190918A02CA
:10288000909595239083469521503109E9F6CCCF58
:10289000508190959523E3CFE0918702F0918802D3
:1028A000808190918C02892B8083ADCF1F93CF9331
:1028B000DF93EC01162F8D8D9E8D892BB1F12DA903
:1028C0003EA94FA958AD60E074E284EF90E00E9409
:1028D0008421205131094109510956954795379571
:1028E00027952093B80066EA111167EACE010E948D
:1028F000C3128D8D9E8D892B41F129AD3AAD4BAD23
:102900005CAD60E074E284EF90E00E94842120518D
:1029100031094109510956954795379527952093D7
:10292000B800DF91CF911F9108958B8D9C8D892BDD
:1029300021F08EAD9FAD0E946809EFA5F8A99081A6
:102940008CA9809589238083CECFEFA5F8A98081BB
:102950009CA9892B8083E5CF90E080E0089587E4EF
:1029600080937C0080917A00806480937A008091CB
:102970007A0086FDFCCF80917800909179000895CF
:10298000EF92FF920F931F93CF93DF93EC01F12C03
:10299000E12C02E110E020E530E050E040E064E3AB
:1029A00070E088E592E00E94870D81E080936C02E0
:1029B00080936D0284E390E09093650280936402BB
:1029C00086E090E09093670280936602CF31D10554
:1029D00020F48EE790E00E94780C01E010E021E204
:1029E00030E042E050E063E570E088E592E00E946C
:1029F0004E0E21E230E04FE050E063E570E088E504
:102A000092E00E944E0E28E030E045E050E060E5A4
:102A100070E088E592E00E945A0E28E030E045E040
:102A200050E066E770E088E592E00E945A0E21E0EF
:102A300043E050E065E070E083E590E00E94CE0E58
:102A400022E043E050E065E070E083E790E00E9420
:102A5000CE0E24E043E050E06CE070E083E790E0CD
:102A60000E94CE0E28E043E050E06CE070E083E589
:102A700090E00E94CE0EEE24E394F12C08E010E0EA
:102A800022E030E045E050E067E770E088E592E062
:102A90000E94870DC531D10588F125E030E045E081
:102AA00050E065E570E088E592E00E94870DC9324C
:102AB000D10520F125E030E045E050E06DE570E023
:102AC00088E592E00E94870DCD33D105B8F025E06E
:102AD00030E045E050E065E670E088E592E00E9475
:102AE000870DC135D10550F025E030E045E050E0DC
:102AF0006DE670E088E592E00E94870DDF91CF914E
:102B00001F910F91FF90EF900C942513F8948091F2
:102B10004702823031F1833009F43FC0813099F4AB
:102B200083E00E941E06892B71F484E00E941E0639
:102B3000019779F480910601853628F0809106018D
:102B40008150809306018BE39DE00197F1F7789423
:102B50000895809106018F3FB1F3809106018F5F48
:102B6000F0CF83E00E941E06892B69F784E00E9463
:102B70001E06019751F480910401823020F3809168
:102B80000401815080930401DECF80910401883CD0
:102B9000D0F6809104018F5FF5CF83E00E941E067E
:102BA000892B89F684E00E941E06019719F4109281
:102BB0000501C9CF81E080930501C5CF1F93CF9355
:102BC000DF93182FC82FD0E061E089E00E947506DE
:102BD000209739F460E089E0DF91CF911F910C9448
:102BE0004706CF3FD10511F461E0F5CFE5EAF5E006
:102BF000E491E33031F140F4E130B1F0E230E1F062
:102C0000C038D1058CF7E6CFE73029F1E83059F12B
:102C1000E430B1F780918000806280938000D0938F
:102C20008B00C0938A0004C084B5806884BD17BD42
:102C3000DF91CF911F91089584B5806284BD18BD46
:102C4000F7CF80918000806880938000D0938900C6
:102C5000C0938800EDCF8091B00080688093B00071
:102C60001093B300E5CF8091B00080628093B000F4
:102C70001093B400DDCF61E089E00E94750660E04A
:102C800089E00C94470620915E0230915F02C901F1
:102C9000079697FD079623E0959587952A95E1F786
:102CA00020915C0230915D02829FA001839F500DB4
:102CB000929F500D112470E060E080917702909116
:102CC00078020C94D622FC0101900020E9F731979C
:102CD000AF01481B590BBC0188E592E00C94C80574
:102CE0008F929F92AF92BF920F931F93CF93DF93D8
:102CF000CDB7DEB7A1970FB6F894DEBF0FBECDBF3C
:102D000019A2423008F44AE08E010F5D1F4F842E55
:102D1000912CB12CA12CA50194010E948421E62FB5
:102D2000B901CA01EA30F4F4E05DD801EE938D01F7
:102D3000232B242B252B79F790E080E0109719F0B6
:102D4000CD010E946316A1960FB6F894DEBF0FBEA8
:102D5000CDBFDF91CF911F910F91BF90AF909F900A
:102D60008F900895E95CE1CF0C946316CF93DF93C5
:102D70000E94431682E080936C0280936D02CAE049
:102D8000D0E0D0936502C0936402D0936702C093F1
:102D900066028CE790E00E94780C81E080936C02E0
:102DA00080936D02D0936502C09364028EE190E03F
:102DB000909367028093660288E790E00E94780C07
:102DC000D0936502C0936402CDE2D0E0D093670255
:102DD000C093660282E790E00E94780C82E390E064
:102DE0009093650280936402D0936702C093660259
:102DF0006091060170E090E080E04AE00E94701669
:102E0000C0E5D0E0D0936502C093640289E190E010
:102E100090936702809366028CE690E00E94780CA3
:102E2000D0936502C093640288E290E090936702B9
:102E300080936602809104018A3020F48AE591E053
:102E40000E94B4166091040170E090E080E04AE0D6
:102E50000E94701688E690E00E94780C0E9425136C
:102E600084E690E0DF91CF910C94C0140E94D122AF
:102E700085ED8093BC008091A9019091AA01A09159
:102E8000AB01B091AC010796A11DB11D23E0B69531
:102E9000A795979587952A95D1F72091BC0024FD99
:102EA00003C01092F20108954091A9015091AA0126
:102EB0006091AB017091AC01452B462B472B69F318
:102EC0000097A105B10541F025E32A95F1F700002F
:102ED0000197A109B109E1CF8091A8010C9481105B
:102EE0001F93CF93DF93EC01162F0E945A211817DE
:102EF00039F0612FCE01DF91CF911F910C946221A7
:102F0000DF91CF911F9108951F920F920FB60F92EC
:102F100011242F933F938F939F93AF93BF938091EF
:102F2000190290911A02A0911B02B0911C023091DB
:102F3000180223E0230F2D3758F50196A11DB11D6E
:102F4000209318028093190290931A02A0931B02F7
:102F5000B0931C0280911D0290911E02A0911F024D
:102F6000B09120020196A11DB11D80931D02909386
:102F70001E02A0931F02B0932002BF91AF919F91B8
:102F80008F913F912F910F900FBE0F901F9018952A
:102F900026E8230F0296A11DB11DD2CF1F920F92DA
:102FA0000FB60F9211242F933F934F935F936F931C
:102FB0007F938F939F93AF93BF93EF93FF93E09192
:102FC0000201F09103010995FF91EF91BF91AF913B
:102FD0009F918F917F916F915F914F913F912F9131
:102FE0000F900FBE0F901F9018951F920F920FB663
:102FF0000F9211242F933F934F935F936F937F937F
:103000008F939F93AF93BF93EF93FF93E091000152
:10301000F09101010995FF91EF91BF91AF919F91BF
:103020008F917F916F915F914F913F912F910F9071
:103030000FBE0F901F9018951F920F920FB60F9210
:1030400011242F933F934F935F936F937F938F93AD
:103050009F93AF93BF93EF93FF938091B900887FC5
:10306000803609F44AC0F0F5883209F4A7C018F593
:10307000803109F49BC0B8F4882309F4F9C0883082
:1030800009F494C0FF91EF91BF91AF919F918F91FF
:103090007F916F915F914F913F912F910F900FBE54
:1030A0000F901F901895883109F488C0803251F72D
:1030B0008093F10114C0803409F49DC040F4803342
:1030C000B9F38833F9F68093F10185ECB0C080350F
:1030D00009F485C0883509F496C0883499F60E94B1
:1030E0003817D0CF883909F48CC038F5883729F0E3
:1030F00050F4883611F0803729F683E08093F2018E
:103100001092F00157C0883809F47BC0803919F05B
:10311000803809F0B7CF8091F001803208F071C09B
:10312000E091F00181E08E0F8093F0018091BB006F
:10313000F0E0E053FE4F80833DC0803B39F0E0F487
:10314000803A09F479C0883A09F09CCF84E08093F2
:10315000F2011092CF011092CE01E0912402F09181
:10316000250209958091CE0181110FC081E08093E5
:10317000CE011092AE0109C0803C09F4A6CF883C74
:1031800009F4A3CF883B09F07DCFE091CF0181E026
:103190008E0F8093CF01F0E0E255FE4F8081809347
:1031A000BB009091CF018091CE0129C08091170280
:1031B0008093BB0085EC8093BC0064CF9091160295
:1031C00080911502981758F5E091160281E08E0F54
:1031D00080931602F0E0EB50FE4F8081E9CFE09142
:1031E000160281E08E0F809316028091BB00F0E002
:1031F000EB50FE4F80839091160280911502981734
:10320000C8F285E8D8CFE091160281E08E0F809356
:1032100016028091BB00F0E0EB50FE4F808380915E
:10322000F40181115CCF81E08093F30184EA809303
:10323000BC001092F20126CF85EC8093BC00109266
:10324000F2018091F001803230F4E091F001F0E081
:10325000E053FE4F10826091F00170E0E091220295
:10326000F091230280ED91E009951092F0010ACFD0
:103270001092F10134CFACE4B2E013961C921E928E
:10328000129748EE53E060E070E014964D935D9322
:103290006D937C93179781E191E011969C938E93A7
:1032A000E8E5F2E01382128220E830E035832483DF
:1032B00080E490E097838683318720879387828795
:1032C000168A158614861786168681E0858B848B70
:1032D0002FEF3FEF338B228B318B208B878B108E20
:1032E000128E118E83E291E091838083148E138E6F
:1032F000B68FA58F10A2178E8FEF84A385A386A308
:1033000087A380A780E89AE1A6E0B0E085AB96AB02
:10331000A7ABB0AF80EA96E8A1E0B0E081AF92AF92
:10332000A3AFB4AF80E586AF17AE0895789484B5A7
:10333000826084BD84B5816084BD85B5826085BDB1
:1033400085B5816085BD80916E00816080936E003F
:103350001092810080918100826080938100809131
:1033600081008160809381008091800081608093E2
:1033700080008091B10084608093B1008091B000A2
:1033800081608093B00080917A00846080937A009D
:1033900080917A00826080937A0080917A008160C7
:1033A00080937A0080917A00806880937A001092EE
:1033B000C10061E089E00E94750660E089E00E943A
:1033C000470661E085E00E94750660E085E00E94A6
:1033D000470660E085E10E94750660E082E00E9499
:1033E000750660E084E00E94750660E083E00E945C
:1033F000750661E082E00E94470661E084E00E9479
:10340000470661E083E00E94470686E895E19093D5
:1034100003018093020180916900837F886080931B
:103420006900E99A8091770290917802892B11F5D1
:1034300020915E0230915F02C901079697FD0796C1
:10344000B3E095958795BA95E1F720915C023091AC
:103450005D02AC01429FC001439F900D529F900DB1
:1034600011240E94AC219093780280937702892BDB
:1034700009F4B5C20E94431620915E0230915F02AA
:1034800080915C0290915D02B901213231050CF40A
:103490009DC16054710977FF02C06F5F7F4F7595C2
:1034A00067958255910997FD019600E410E022E5A9
:1034B00030E04EED57E0959587950E946D0E82E0C5
:1034C00080937A028091750290917602892B09F49B
:1034D00090C18DE380937902109227021092260208
:1034E00010924902109248020E94631086EC95E007
:1034F000909325028093240287EC95E09093230219
:10350000809322028091800287FD1EC061E00E94AC
:10351000750661E0809180020E94470661E070E0DC
:1035200080E090E00E94CB0660E0809180020E94E3
:1035300047066AE070E080E090E00E94CB0661E020
:10354000809180020E9447068091750290917602D8
:10355000892B09F40DC220918D0230918E02409189
:103560008F025091900260E074E284EF90E00E943C
:1035700084212051310941095109569547953795C4
:1035800027952093B80064E088EC95E00E940E1225
:1035900060915E02615088E592E00E94C31264E08F
:1035A00084EC95E00E940E1280917A0260E18130F5
:1035B00009F064E188E592E00E94C31264E080ECC7
:1035C00095E00E940E128FE88093950280915C0234
:1035D00090915D028038910509F0E3C180915E020F
:1035E00090915F028034910509F0EBC180917A02DD
:1035F000813009F0D4C18FE980939502C2E16AED70
:1036000088E592E00E94C3126C2F88E592E00E9448
:10361000C31261E888E592E00E94C31260919502AE
:1036200088E592E00E94C31269ED88E592E00E946D
:10363000C31280917A0262E2813009F061EF88E57D
:1036400092E00E94C31266E08AEB95E00E940E129F
:103650008091750290917602892B09F4B6C1209170
:10366000910230919202409193025091940260E055
:1036700074E284EF90E00E948421205131094109D5
:10368000510956954795379527952093B80081E0C5
:1036900080936C0280936D0281E090E090936B02C6
:1036A00080936A0290936902809368020E94431695
:1036B0008AE090E00E945A218093060184E190E024
:1036C0000E945A21809304018EE190E00E945A21C9
:1036D000809305018091060180910601843648F4AB
:1036E00084E680930601609106018AE090E00E94E2
:1036F000701780910401893C20F4809104018111AC
:1037000009C081E0809304016091040184E190E0AC
:103710000E94701780910501882361F08091050156
:10372000813041F081E08093050161E08EE190E01D
:103730000E9470176AE070E080E090E00E94CB0683
:1037400061E085E00E94470660E971E080E090E07A
:103750000E94CB0660E085E00E94470660E971E0C8
:1037600080E090E00E94CB0661E085E00E94470681
:1037700060E971E080E090E00E94CB0660E085E0C7
:103780000E9447064CE3842E912CA12CB12C54E1CD
:10379000652E712C68E2C62ED12CCAE0D0E039E14A
:1037A000232E312C80914702823009F4A9C408F0FD
:1037B00017C1882309F439C1813009F47DC140E083
:1037C00050E0452B79F30E940000E9CF6052710967
:1037D00077FF02C06F5F7F4F75956795835791099B
:1037E00097FD019600E210E023E730E04EEF55E050
:1037F00062CE61E080917E020E94750661E0809158
:103800007F020E94750680917E02082E000C990BA3
:10381000FC01E651FA4FE491F0E0EE0FFF1FE05299
:10382000FA4F259134913093860220938502FC0152
:10383000E453FA4FE491E0938B0280917F02082ECB
:10384000000C990BFC01E651FA4FE491F0E0EE0F09
:10385000FF1FE052FA4FA591B491B0938802A09354
:103860008702FC01E453FA4FE491E0938C028C91BF
:10387000E82BEC938091730290917402892B09F4E8
:1038800034C0CFB7F89480912102811127C0E4EFB2
:10389000F5E08491E6EDF5E09491E82FF0E0EE0F8D
:1038A000FF1FE055FA4FA591B491EC91E92321F463
:1038B00061E08AE00E94470661E08AE00E947506A6
:1038C0008CB580618CBD8CB580648CBD61E08DE071
:1038D0000E94750661E08BE00E94750680912102CE
:1038E0008F5F80932102CFBF0DCE61E080917C027B
:1038F0000E94750661E080917D020E9475068091AC
:103900007C02082E000C990BFC01E651FA4FE49161
:10391000F0E0EE0FFF1FE052FA4F25913491309303
:10392000820220938102FC01E453FA4FE491E09378
:10393000890280917D02082E000C990BFC01E65152
:10394000FA4FE491F0E0EE0FFF1FE052FA4FA5911D
:10395000B491B0938402A0938302FC01E453FA4F24
:10396000E491E0938A028C91E095E823EC93CACD30
:103970008091730290917402892B31F080919602AC
:10398000909197020E946809E0918702F091880265
:10399000908180918C02809589238083F4CD8FEC77
:1039A0002BCE8036910569F480915E0290915F0282
:1039B000409739F480917A02813029F480E1809334
:1039C0009502C2E01CCE8FEAFACFE0918702F09117
:1039D0008802808190918C02892B808358CEFFCF02
:1039E000843009F402C408F4CDC3853009F0E7CE71
:1039F0000E944316D0926502C0926402D09367027F
:103A0000C093660286EA9AE00E94780C85E691E00F
:103A10000E9463160E94251368EE73E080E090E038
:103A20000E94CB0610924702CACE0E9443168FE036
:103A300090E09093650280936402D0936702C093F4
:103A4000660282E080936C0280936D0284E29BE0C8
:103A50000E94780C2AE330E03093650220936402E0
:103A600040E250E0509367024093660211E01093E9
:103A70006C0210936D0281E29BE00E94780C85E05D
:103A800090E0909365028093640222E330E03093EB
:103A90006702209366028DE09BE00E94780C0E94F2
:103AA000251360ED77E080E090E00E94CB06109354
:103AB00047020E94B61683CE60E085E00E9447066A
:103AC0008091060190914602981799F18091060124
:103AD0008093460290914502913011F40E94DE15C8
:103AE000F12CE12C07E010E025E130E04DE250E060
:103AF00062E370E088E592E00E94870D81E08093A8
:103B00006C0280936D0242E350E050936502409353
:103B100064028DE290E09093670280936602609168
:103B2000060170E090E080E04AE00E9470160E947A
:103B300025131092440210924302552453942EE10F
:103B4000E22EF12C82E00E941E06009143021091A9
:103B50004402892B09F05BC061E070E080E090E0F6
:103B60000E94CB060F5F1F4F109344020093430245
:103B7000083B5BE01507A9F40E94431650926C02C3
:103B800050926D02D0926502C09264023092670238
:103B90002092660283E09BE00E94780C0E9425132D
:103BA000D1CF08358BE1180789F40E944316509253
:103BB0006C0250926D02F0926502E09264023092C3
:103BC00067022092660286EF9AE0E6CF083F1A422B
:103BD00009F0B8CF0E94431681E080936C02809375
:103BE0006D0220E330E0309365022093640230924E
:103BF00067022092660281EF9AE00E94780C0E9490
:103C0000251368EE73E080E090E00E94CB0680917F
:103C10004302909144029C012456310924383340D8
:103C200008F0D5C1809145028111A3C15524539458
:103C300050924502809106010E94DE1560910601B6
:103C40008AE090E00E947017F12CE12C07E010E070
:103C500025E130E04EE150E06AE070E088E592E076
:103C60000E94870D50926C0250926D02D0936502B3
:103C7000C09364028EE190E09093670280936602A5
:103C80008BE491E00E94B4160E9425130E94FD0669
:103C900060933F02709340028093410290934202EE
:103CA00080914502882309F4FEC0F12CE12C0EE03E
:103CB00010E02EE030E04AE050E06AE070E088E595
:103CC00092E00E94870D82E080936C0280936D02E7
:103CD000D0936502C0936402D0936702C0936602DA
:103CE00080912802813009F48EC108F487C18230A6
:103CF00009F48CC1833009F48CC10E942513809192
:103D000028028F5F843008F087C180932802809159
:103D10000501882309F4D1C10E94FD0600913F02EC
:103D2000109140022091410230914202601B710BC0
:103D3000820B930B28EE33E040E050E00E94842198
:103D40002093310230933202409333025093340275
:103D5000809104019CE3592E859DC0011124092EF8
:103D6000000CAA0BBB0B281739074A075B0708F0A2
:103D700059C1F12CE12C07E010E028E230E048E2E4
:103D800050E060E570E088E592E00E94870D81E0F8
:103D900080936C0280936D0280E590E090936502C1
:103DA00080936402D0926702C0926602609104011F
:103DB000E0903102F090320200913302109134020F
:103DC000659DB0011124072E000C880B990B6E190C
:103DD0007F09800B910BA50194010E9484216093BF
:103DE0002D0270932E0280932F02909330026091E7
:103DF0000401659DB0011124072E000C880B990B5E
:103E00006E197F09800B910BA50194010E948421FA
:103E10002093290230932A0240932B0250932C02C4
:103E20002A3031054105510520F48AE591E00E94D0
:103E3000B4166091290270912A0280912B02909110
:103E40002C024AE00E9470160E94FD0628EE33E024
:103E500040E050E00E948421653F7140810591055A
:103E600008F4DDC082E591E00E94B41680912D0235
:103E700090912E02A0912F02B09130020A97A105D5
:103E8000B10520F48AE591E00E94B41660912D02FC
:103E900070912E0280912F02909130024AE00E9490
:103EA00070160E9425130E94FD0620913D0230915C
:103EB0003E02621B730B81099109613177428105D2
:103EC000910508F44FC00E94AF148C010E94AF14FA
:103ED000080F191F0E94AF14080F191F0E94AF147A
:103EE000080F191F169507951695079510933C0214
:103EF00000933B028091390290913A02801791071A
:103F000008F0FBC0A801481B590BCA019093380266
:103F10008093370280913702909138020697E0F043
:103F20008AE090E0013451E0150760F024E6209F1C
:103F3000C001219F900D11249D5764E670E00E94FE
:103F40007021CB010E94C01480913B0290913C02F1
:103F500090933A02809339020E94FD0670933E02CC
:103F600060933D026AE070E080E090E00E94CB0642
:103F700026CC109245020E943B16609106018AE011
:103F800090E00E947017F12CE12C07E010E025E191
:103F900030E04EE150E06AE070E088E592E00E9497
:103FA000870D81E080936C0280936D02D09365024F
:103FB000C09364028EE190E0909367028093660262
:103FC0008EE491E00E94B4160E94251369CE9C01F4
:103FD000285B3B40203A3F4020F482E08093470238
:103FE000EECB9C0128553B41203A3F4010F483E042
:103FF000F5CF883F9A4208F453CE5BCD84EA9AE02D
:104000000E94780C7ACE82EA9AE0FACF80EA9AE0AF
:10401000F7CF8EE99AE0F4CF1092280278CE84E5AB
:1040200091E022CF109245020E943B161092360278
:104030001092350284E080934702609106018AE085
:1040400090E00E947017F12CE12C07E010E025E1D0
:1040500030E04EE150E06AE070E088E592E00E94D6
:10406000870D81E080936C0280936D02D09365028E
:10407000C09364028EE190E09093670280936602A1
:104080008EE491E00E94B41628E230E048E250E06D
:1040900060E570E088E592E00E94870D80E590E0A1
:1040A0009093650280936402D0926702C092660288
:1040B00086E591E00E94B416F4CEF12CE12C07E0E5
:1040C00010E028E230E048E250E060E570E088E58A
:1040D00092E00E94870D81E080936C0280936D02D4
:1040E00080E590E09093650280936402D09267022D
:1040F000C09266028CE591E0DDCF801B910B06CF6C
:104100000E94431670926502609264027092670288
:104110006092660287EE9AE00E94780C609104013A
:1041200070E090E080E04AE00E94701682EE9AE033
:104130000E94780C0E9425136AE070E080E090E015
:104140000E94CB0682E00E941E06892B09F037CB25
:1041500081E0809347026091040184E190E00E9435
:10416000701768EC70E080E090E00E94CB060E943F
:10417000FD0660933F02709340028093410290934A
:10418000420297CC0E9443167092650260926402CC
:10419000709267026092660280910501882311F196
:1041A00084ED9AE00E94780C0E9425136AE070E08A
:1041B00080E090E00E94CB0682E00E941E06892BE0
:1041C00009F0FDCA81E080934702609105018EE10C
:1041D00090E00E94701768EC70E080E090E00E9430
:1041E000CB0667CC85EC9AE0DDCF809135029091CB
:1041F000360262E370E00E9470210097A9F50E94E8
:104200004316D0926502C0926402D0936702C093B5
:1042100066028BEB9AE00E94780C0E942513809135
:1042200035029091360261E0883E934080F18091A2
:1042300035029091360201969093360280933502B2
:104240006AE070E080E090E00E94CB0682E00E948D
:104250001E06892B09F0B3CA60E085E00E9447067C
:1042600081E080934702B7CF499709F70E94431630
:10427000D0926502C0926402D0936702C093660236
:1042800081EB9AE00E94780C0E94251360E085E0A3
:104290000E944706CCCF83E291E09093590280932D
:1042A00058028091770290917802009711F00C9457
:1042B00048220895F999FECF92BD81BDF89A9927B9
:1042C00080B50895262FF999FECF1FBA92BD81BD02
:1042D00020BD0FB6F894FA9AF99A0FBE0196089588
:1042E000AA1BBB1B51E107C0AA1FBB1FA617B7071C
:1042F00010F0A61BB70B881F991F5A95A9F7809538
:104300009095BC01CD010895A1E21A2EAA1BBB1BFA
:10431000FD010DC0AA1FBB1FEE1FFF1FA217B30791
:10432000E407F50720F0A21BB30BE40BF50B661FA7
:10433000771F881F991F1A9469F76095709580956B
:1043400090959B01AC01BD01CF010895EE0FFF1FB9
:104350000590F491E02D09940F931F93CF93DF9371
:104360008230910510F482E090E0E0919A02F091A1
:104370009B0230E020E0B0E0A0E0309799F42115F6
:10438000310509F44AC0281B390B24303105D8F512
:104390008A819B816115710589F1FB019383828379
:1043A000FE0111C0408151810281138148175907D4
:1043B000E0F04817590799F4109761F012960C93A2
:1043C000129713961C933296CF01DF91CF911F91D4
:1043D0000F91089500939A0210939B02F4CF211538
:1043E000310551F04217530738F0A901DB019A015A
:1043F000BD01DF01F801C1CFEF01F9CF90939B021E
:1044000080939A02CDCFFE01E20FF31F8193919327
:104410002250310939832883D7CF209198023091D7
:104420009902232B41F42091090130910A01309324
:1044300099022093980220910701309108012115DB
:10444000310541F42DB73EB740910B0150910C015D
:10445000241B350BE0919802F0919902E217F307C3
:10446000A0F42E1B3F0B2817390778F0AC014E5FE4
:104470005F4F2417350748F04E0F5F1F5093990286
:1044800040939802819391939FCFF0E0E0E09CCF1E
:10449000CF93DF930097E9F0FC01329713821282E9
:1044A000A0919A02B0919B02ED0130E020E01097BC
:1044B000A1F420813181820F931F209198023091C5
:1044C00099022817390709F061C0F0939902E09327
:1044D0009802DF91CF910895EA01CE17DF07E8F542
:1044E0004A815B819E0141155105B1F7E901FB83CA
:1044F000EA8349915991C40FD51FEC17FD0761F468
:10450000808191810296840F951FE90199838883A8
:10451000828193819B838A83F0E0E0E012968D9103
:104520009C9113970097B9F52D913C911197CD016E
:104530000296820F931F20919802309199022817BA
:10454000390739F6309751F510929B0210929A0272
:10455000B0939902A0939802BCCFD383C2834081C9
:104560005181840F951FC817D90761F44E5F5F4FC3
:1045700088819981480F591F518340838A819B818B
:10458000938382832115310509F0B0CFF0939B020C
:10459000E0939A029ECFFD01DC01C0CF138212820C
:1045A000D7CF81E090E0F8940C94DD22DC0101C0CB
:1045B0006D9341505040E0F7089515E0CAE9D5E009
:1045C00004C0FE010E94A6212196CB39D107C9F76C
:1045D000F894FFCF0907090701016400009C0280DD
:1045E0000000000000F810CB10AC14C505C410B1D9
:1045F00010A21000000000A60BC805AC143B10B1BF
:1046000008C505660E3E0E5A0E4E0E8E0FC5056C81
:1046100009561421086A08870D6A0DF20C930C4F95
:104620004E004F4646003A00200030303A3030000D
:0C46300044495341424C4544000D0A002F
:107E0000112484B714BE81FFF0D085E080938100F7
:107E100082E08093C00088E18093C10086E0809377
:107E2000C20080E18093C4008EE0C9D0259A86E02C
:107E300020E33CEF91E0309385002093840096BBD3
:107E4000B09BFECF1D9AA8958150A9F7CC24DD24C4
:107E500088248394B5E0AB2EA1E19A2EF3E0BF2EE7
:107E6000A2D0813461F49FD0082FAFD0023811F036
:107E7000013811F484E001C083E08DD089C08234E0
:107E800011F484E103C0853419F485E0A6D080C0E4
:107E9000853579F488D0E82EFF2485D0082F10E0AE
:107EA000102F00270E291F29000F111F8ED06801E7
:107EB0006FC0863521F484E090D080E0DECF843638
:107EC00009F040C070D06FD0082F6DD080E0C81688
:107ED00080E7D80618F4F601B7BEE895C0E0D1E017
:107EE00062D089930C17E1F7F0E0CF16F0E7DF06D8
:107EF00018F0F601B7BEE89568D007B600FCFDCFD4
:107F0000A601A0E0B1E02C9130E011968C91119780
:107F100090E0982F8827822B932B1296FA010C0160
:107F200087BEE89511244E5F5F4FF1E0A038BF0790
:107F300051F7F601A7BEE89507B600FCFDCF97BE46
:107F4000E89526C08437B1F42ED02DD0F82E2BD052
:107F50003CD0F601EF2C8F010F5F1F4F84911BD097
:107F6000EA94F801C1F70894C11CD11CFA94CF0C13
:107F7000D11C0EC0853739F428D08EE10CD085E9AC
:107F80000AD08FE07ACF813511F488E018D01DD067
:107F900080E101D065CF982F8091C00085FFFCCF94
:107FA0009093C60008958091C00087FFFCCF809118
:107FB000C00084FD01C0A8958091C6000895E0E648
:107FC000F0E098E1908380830895EDDF803219F02E
:107FD00088E0F5DFFFCF84E1DECF1F93182FE3DFCA
:107FE0001150E9F7F2DF1F91089580E0E8DFEE27F6
:047FF000FF270994CA
:027FFE00040479
:00000001FF
